:020000040800F2
:100000009006002029020008650200086702000827
:10001000690200086B0200086D0200080000000081
:100020000000000000000000000000006F02000857
:100030007102000800000000730200081D1400088F
:1000400077020008770200087702000877020008AC
:1000500077020008770200082903000879030008E6
:10006000D10300082904000877020008770200087D
:10007000770200087702000877020008770200087C
:10008000770200087702000877020008770200086C
:10009000770200087702000877020008550400087C
:1000A000770200087702000877020008770200084C
:1000B000770200087702000877020008770200083C
:1000C000770200087702000877020008770200082C
:1000D000770200087702000877020008770200081C
:1000E000770200087702000877020008770200080C
:1000F00077020008770200087702000877020008FC
:1001000077020008770200087702000877020008EB
:1001100077020008770200087702000877020008DB
:1001200077020008770200087702000877020008CB
:1001300077020008770200087702000877020008BB
:1001400077020008770200087702000877020008AB
:10015000770200087702000877020008770200089B
:10016000770200087702000877020008770200088B
:1001700077020008770200087702000800000000FC
:10018000770200087702000800F002F800F03CF85F
:100190000AA090E8000C82448344AAF10107DA45E2
:1001A00001D100F031F8AFF2090EBAE80F0013F0F8
:1001B000010F18BFFB1A43F001031847281C000069
:1001C000481C0000103A24BF78C878C1FAD85207FA
:1001D00024BF30C830C144BF04680C6070470000C1
:1001E0000023002400250026103A28BF78C1FBD840
:1001F000520728BF30C148BF0B6070471FB501F0E0
:10020000BAFD1FBD10B510BD00F053F81146FFF741
:10021000F5FF01F0BDFA00F071F803B4FFF7F2FF4B
:1002200003BC00F079F8000016481749174B9942B3
:100230003CBF50F8042B41F8042BF8D314494FF07D
:1002400000028B4238BF43F8042BFAD3DFF8440096
:10025000016841F470010160BFF34F8FBFF36F8FEE
:100260000D480047FEE7FEE7FEE7FEE7FEE7FEE794
:10027000FEE7FEE7FEE7FEE708480949094A0A4BA0
:1002800070470000041E000800000020100000203D
:100290009006002088ED00E0890100089000002011
:1002A00090060020900200209002002070477047C6
:1002B0007047754600F02CF8AE4605006946534677
:1002C00020F00700854618B020B5FFF7D5FFBDE840
:1002D00020404FF000064FF000074FF000084FF0AD
:1002E000000BAC46ACE8C009ACE8C009ACE8C009FA
:1002F000ACE8C00921F007018D46704710B50446EF
:10030000AFF300802046BDE81040FFF786BF000035
:10031000004870471000002001491820ABBEFEE7DE
:10032000260002007047000080B5062001F0BCF8EE
:1003300040F28800C2F200000178022908D140F2A0
:100340000001C2F200010A68B2FA82F252090A60A0
:10035000007840B940F27400C2F200000168B1FABE
:1003600081F14909016040F21440C4F201000168C2
:1003700041F00101016080BD80B5072001F094F8D3
:1003800040F27400C2F20000006858B140F28400EC
:10039000C2F20000016800291ABF01680139022178
:1003A00001600BE040F28800C2F20000017819B150
:1003B00001780139017001E00221017040F214401E
:1003C000C4F20100016841F00201016080BD00003B
:1003D00080B5082001F068F840F27400C2F2000015
:1003E000006858B140F28400C2F20000016802299E
:1003F0001ABF01680131002101600CE040F2880061
:10040000C2F200000178022902D10021017002E04D
:1004100001780131017040F21440C4F2010001681A
:1004200041F00401016080BD80B5092001F03CF875
:1004300040F27400C2F200000068002818BF01F00A
:100440006FFA40F21440C4F20100016841F0080163
:10045000016080BD80B5172001F026F840F28800C9
:10046000C2F20000017802290BD140F20001C2F271
:10047000000101220A6040F28001C2F20001002264
:100480000A600078012805D140F28C00C2F2000019
:100490000021016040F27400C2F2000000680028F0
:1004A00018BF01F0FFF940F21440C4F201000168E6
:1004B00041F02001016080BD80B541F26000C4F2CE
:1004C0000200016841F0010101604FF6084140F26D
:1004D0000040CFF6FF71C4F20100425822F007023B
:1004E0004250425822F070024250425822F4E062D8
:1004F0004250425822F4E04242504FF60C42CFF6AE
:10050000FF72835823F070038350002343508350BD
:10051000816821F001018160816821F00201816020
:10052000816821F004018160816821F00801816007
:10053000816821F02001816040F20C41C4F2010188
:100540000A6842F001020A600A6842F002020A6088
:100550000A6842F004020A600A6842F008020A606F
:100560000A6842F020020A60016841F0010101605E
:10057000016841F002010160016841F0040101607D
:10058000016841F008010160016841F0200101604B
:10059000062000F0A9FF072000F0A6FF082000F0C9
:1005A000A3FF092000F0A0FF172000F09DFF062008
:1005B00000F086FF072000F083FF082000F080FF96
:1005C000092000F07DFF172000F07AFF80BD0000B9
:1005D00042F20840C4F2000001684907FCD46FF001
:1005E00003010022431804313C291A61FAD1016841
:1005F00041F004010160704741F29000C4F2020032
:1006000050F8381CC90005D450F8381C41F080510E
:1006100040F8381C47F20001C4F2000150F8382CB1
:100620000A68D20507D40A6842F480720A6000BFE3
:100630000A68D205FCD5016821F005010160016856
:1006400041F480310160016821F48031016001686A
:10065000890706D4016841F001010160016889073A
:10066000F8D5016821F440710160016841F480719E
:10067000016050F8381C21F0805140F8381C50F8C7
:10068000381C41F4007140F8381C704742F20040B9
:10069000C4F20000016821F060010160016841F0CE
:1006A00040010160016821F01C010160016841F016
:1006B00004010160016841F008010160416841F4F2
:1006C000E0514160416841F070014160016821F0F2
:1006D00080010160016821F002010160016841F0C0
:1006E000010101607047000010B590F800C0ACF146
:1006F0002004DF2C00F236810FF208004FF0000ECC
:10070000DFE814F0E800300130013001300105016C
:100710003001300108010B010E01150130011801F3
:1007200030011B01E000E000E000E000E000E0003C
:10073000E000E000E000E000300130013001300175
:100740003001300130013001300130013001300121
:100750003001300130013001300130013001300111
:100760003001300130013001300130013001300101
:1007700030013001300130013001300130013001F1
:100780003001300130013001300130011E013001F3
:1007900030013001300130013001300130012101E0
:1007A00024013001300130013001300130013001CD
:1007B00030013001300130013001300130013001B1
:1007C00030013001300130013001300130013001A1
:1007D0003001300130013001300130013001300191
:1007E0003001300130013001300130013001300181
:1007F0003001300130013001300130013001300171
:100800003001300130013001300130013001300160
:100810003001300130013001300130013001300150
:1008200030013001270130013001300130012A014F
:100830003001300130013001300130013001300130
:100840003001300130013001300130013001300120
:100850003001300130013001300130013001300110
:100860003001300130013001300130013001300100
:1008700030013001300130013001300130013001F0
:1008800030013001300130013001300130013001E0
:1008900030013001300130013001300130013001D0
:1008A00030013001300130013001300130013001C0
:1008B00030013001300130013001300130013001B0
:1008C00030012D0141F6CE50C0F6000000EB4C0087
:1008D00030F860EC002918BF4EF0020E002A18BF55
:1008E0004EF0200E1FFA8EFE0C214FF0FF326FF0FB
:1008F000030C00BFCCB22EFA04F49818013204F0B5
:100900000F04032A5CFA81F14470F3D110BD4FF457
:10091000334EDFE74FF0280EDCE74FF0110ED9E73A
:100920004AF21400CFF6FF7000F1C90ED2E74AF286
:10093000140ECFE74FF4204ECCE74FF0C00EC9E7BE
:100940004FF4734EC6E74BF2102EC3E742F2102E5F
:10095000C0E74FF46C4EBDE746F2840EBAE74FF69F
:10096000DD7EB7E7ACF14100192808D841F69A506E
:10097000C0F6000000EB4C0030F882EC01E04FF0D4
:10098000000EACF161001928A4D841F69A50C0F6C7
:10099000000000EB4C0030F8C2EC9BE780B582B061
:1009A00046F2676EC6F2666E50FB0EF248F21F5CAE
:1009B0009308C5F2EB1C03EBD27250FB0CF35911F8
:1009C00001EBD371642301FB130102EB8202A0EB64
:1009D000420251FB0EF144F6D35E3032C1F2620E98
:1009E0008DF807208A0850FB0EF302EBD1719A11A3
:1009F00002EBD3724FF47A7302FB130230318DF89D
:100A0000061052FB0CF148F6AD3CC6F6DB0C4A0969
:100A100050FB0CF302EBD1711A1302EBD37242F2CA
:100A2000107302FB130230318DF8051052FB0EF1EA
:100A30008A0902EBD17130318DF804104BF28951E3
:100A4000C1F2F84150FB01F2531303EBD27240F6AE
:100A500035435A43A0EB421252FB0CF2130B03EB4B
:100A6000D27230328DF803204DF68362C4F21B320D
:100A700050FB02F2931403EBD27243F609535A432C
:100A8000A0EB821050FB01F0410B01EBD070303035
:100A90008DF802000DF1070000210022052300F06F
:100AA00007FA0DF1060000210022042300F000FAED
:100AB0000DF1050000210022032300F0F9F901A83F
:100AC00000210022022300F0F3F90DF103000021C0
:100AD0000022012300F0ECF90DF1020000210022B8
:100AE000002300F0E5F902B080BD000080B582B0BF
:100AF000B0F5437F09DB40F27C01C2F200010A68D5
:100B0000A0F53470A2F534720A6048F68901C8F67F
:100B1000880151FB000146F2676C4A1102EBD17E5D
:100B2000CEEB0E12A0EB8202C6F2666C52FB0CF307
:100B3000991001EBD37101EB8103A2EB4302303139
:100B400030328DF806105EFB0CF18DF807208A0814
:100B500002EBD17101EB8101AEEB410130318DF837
:100B6000051048F2B511C1F64E3150FB01F18A096A
:100B700040F2700C02EBD171C2F2000C01F13003B3
:100B80009CF8002040F2D12188428DF8043002D137
:100B90000AB100200FE0B0F5347F08BF002A0CD165
:100BA00040F20800C2F2000001784122412908BF4A
:100BB0005022027001208CF800004D208DF80300B7
:100BC0000DF1030000210022052300F071F940F22D
:100BD0000800C2F2000000210022042300F068F99E
:100BE0000DF1070000210022032300F061F90DF14F
:100BF000060000210022022300F05AF90DF1050041
:100C000000210122012300F053F901A80021002254
:100C1000002300F04DF902B080BD0000B0B582B0F5
:100C200041F6F111C0F2765150FB01F1CA1102EB0D
:100C3000D17141F2707201FB120346F2676EC6F287
:100C4000666E53FB0EF248F21F559008C5F2EB1585
:100C500000EBD27053FB05F2541100EB800004EB63
:100C6000D2724FF0640CA3EB400002FB1C32303018
:100C70008DF8070052FB0EF0820802EBD07044F6AC
:100C8000D352C1F2620253FB02F2941104EBD2720E
:100C90004FF47A7402FB143330308DF8060053FBA6
:100CA00005F0430903EBD07030308DF8050002F1F8
:100CB00030008DF8040051FB0EF0820802EBD0707A
:100CC00051FB05F2531100EB800003EBD272A1EB54
:100CD000400002FB1C1130308DF8030051FB0EF078
:100CE000810801EBD07030308DF802000DF1020068
:100CF00000210022002300F0DBF80DF103000021A9
:100D00000122012300F0D4F801A8002100220223CF
:100D100000F0CEF80DF1050001210022032300F0C0
:100D2000C7F80DF1060000210022042300F0C0F8EE
:100D30000DF1070000210022052300F0B9F802B0F0
:100D4000B0BD000080B500F007F8FFF755FCFFF7D5
:100D50009DFCFFF73DFC80BD41F24C00C4F2020057
:100D6000016840F6FF7241F0010101600168C3F6BD
:100D7000C07241F002010160016841F004010160AC
:100D8000016841F0080101604FF090400168114096
:100D9000016001684AF20002C8F22A0211430160B0
:100DA0002020C4F6000001684FF2000221F07F41CC
:100DB00001600168C0F6FF7241F03B41016041688B
:100DC00011404160416840F6BB32CBF20002114352
:100DD0004160D0F8E0134FF2F002C0F2F30211408C
:100DE000C0F8E013D0F8E01340F60A22CAF6082251
:100DF0001143C0F8E013D0F800144FF60F7221F041
:100E0000FF11C0F80014D0F8001441F0BB11C0F875
:100E1000001440F22440C4F6000001681140016053
:100E20000168B022CBF6BB3211430160D0F8DC136D
:100E30004BF200026FF39111C0F8DC13D0F8DC1311
:100E4000CBF6BB3241F4203141F42A51C0F8DC1317
:100E5000D0F8FC136FF31F31C0F8FC13D0F8FC136B
:100E60001143C0F8FC13D0F8001421F00F01C0F8B2
:100E70000014D0F8001441F00B01C0F8001440F643
:100E80000040C4F60000016889B20160016841F0C9
:100E90002A4141F42A010160016A0162016A01628A
:100EA000416A00214162416A41F0BB3141627047B1
:100EB000B0B582B01C4642F2144501ABC4F2000545
:100EC000FFF712FC55F80C0C4007FBD4052C00F280
:100ED0005D82DFE814F006006300C40021018A018E
:100EE000FB0128684FF6E771CFF63F710840286094
:100EF000A8680840A860286908402861A8690840D7
:100F0000A8619DF804002C6800F0010100F00202C5
:100F100000F0040300F00800204340EA825040EA59
:100F2000011040EA035028609DF80500AC6800F00D
:100F3000010100F0020200F0040300F00800204369
:100F400040EA825040EA011040EA0350A8609DF850
:100F500006002C6900F0010100F0020200F0040319
:100F600000F00800204340EA825040EA011040EAC5
:100F7000035028619DF80700AC6900F0010100F002
:100F8000020200F0040300F00800204340EA82500F
:100F900040EA011040EA0350A861F7E128684CF6E6
:100FA0009F71CFF6FF7108402860A8680840A860CC
:100FB000286908402861A8690840A8619DF80400D4
:100FC0002C6800F0020200F0010144EA023200F055
:100FD000040342EA811100F0080041EA832141EA5A
:100FE000800028609DF80500AC6800F0020200F067
:100FF000010144EA023200F0040342EA811100F0E8
:10100000080041EA832141EA8000A8609DF80600BB
:101010002C6900F0020200F0010144EA023200F003
:10102000040342EA811100F0080041EA832141EA09
:10103000800028619DF80700AC6900F0020200F012
:10104000010144EA023200F0040342EA811100F097
:10105000080041EA832141EA8000A86196E12868FE
:1010600043F6FF71CCF6FF7108402860A86808407D
:10107000A860286908402861A8690840A8619DF80F
:1010800004002C68C10300F0020289B244EA027233
:1010900000F00403114300F0080041EA836141EAD3
:1010A000C02028609DF80500AC68C10300F0020272
:1010B00089B244EA027200F00403114300F0080010
:1010C00041EA836141EAC020A8609DF806002C69CE
:1010D000C10300F0020289B244EA027200F0040384
:1010E000114300F0080041EA836141EAC020286111
:1010F0009DF80700AC69C10300F0020289B244EA1E
:10110000027200F00403114300F0080041EA836119
:1011100041EAC020A86139E1286820F040402860F9
:10112000686820F003006860A86820F04040A8606C
:10113000E86820F00300E860286920F0404028615A
:10114000686920F003006861A86920F04040A86148
:10115000E86920F00300E8619DF80400296800F0C8
:10116000080241EAC07141EAC261296000F002014F
:10117000C0F380006A680844104368609DF8050069
:10118000A96800F0080241EAC07141EAC261A960A1
:1011900000F00201C0F38000EA6808441043E860F0
:1011A0009DF80600296900F0080241EAC07141EA91
:1011B000C261296100F00201C0F380006A6908443D
:1011C000104368619DF80700A96900F0080241EA30
:1011D000C07141EAC261A96100F00201C0F3800060
:1011E000EA6908441043E861D0E0286820F04070C4
:1011F0002860686820F00C006860A86820F04070E3
:10120000A860E86820F00C00E860286920F04070D1
:101210002861686920F00C006861A86920F04070BE
:10122000A861E86920F00C00E8619DF804102A68C4
:1012300001F0040301F0020042EA835242EA006036
:101240002860042000EA51026B6861F3C30242EA9D
:10125000030169609DF80510AB6801F0040401F01A
:10126000020243EA845343EA0262AA6000EA51029E
:10127000EB6861F3C30242EA0301E9609DF80610DE
:101280002B6901F0040401F0020243EA845343EAAB
:1012900002622A6100EA51026B6961F3C30242EA09
:1012A000030169619DF80710AB6901F0040401F0C6
:1012B000020243EA845343EA0262AA6100EA51004F
:1012C000EA6961F3C3001043E8615FE028684FF604
:1012D000FF41CFF6FD3108402860A8680840A860AB
:1012E000286908402861A8690840A8619DF80400A1
:1012F0002C6800F0020200F0010144EAC21200F082
:10130000040342EA414100F0080041EAC31141EA06
:10131000C05028609DF80500AC6800F0020200F0A3
:10132000010144EAC21200F0040342EA414100F024
:10133000080041EAC31141EAC050A8609DF80600C8
:101340002C6900F0020200F0010144EAC21200F030
:10135000040342EA414100F0080041EAC31141EAB6
:10136000C05028619DF80700AC6900F0020200F04F
:10137000010144EAC21200F0040342EA414100F0D4
:10138000080041EAC31141EAC050A86100F008F822
:1013900055F80C0C40F0040045F80C0C02B0B0BD40
:1013A00042F22440C4F2000050F81C1C4907FBD450
:1013B00001684FF6FF62CFF6FF521140016081686D
:1013C0001140816040F27101C2F200010978CA0740
:1013D00010D18A0714D44A0718D4090703D5016825
:1013E00041F00071016050F81C1C41F0040140F80C
:1013F0001C1C7047826842F4807282608A07EAD5BA
:10140000026842F4807202604A07E6D5826842F0C0
:10141000007282600907E6D5E1E7000040F20000B3
:10142000C2F20000006830B940F28000C2F2000051
:1014300001680131016040F27400C2F200000068EE
:10144000012840F20400C2F200000CD0016819B17A
:10145000016801390160704740F27C01C2F200016D
:101460000A6801320A6041F26F7101607047000042
:10147000B0B54EF21004CEF200040025013825600C
:10148000606000F029F8A560206820F0040020606A
:10149000206840F002002060206840F001002060D9
:1014A000B0BD00007047000000F01F00012101FAEC
:1014B00000F04EF28021CEF200010860704700007B
:1014C00000F01F00012101FA00F04EF20011CEF2EF
:1014D00000010860704700004EF62350CEF2000075
:1014E0001021017070470000E421C0F2E00161F3B7
:1014F0001F2070210170704741F20000C4F2020009
:10150000016841F001010160816821F003018160FF
:1015100001688907FCD5016821F0F00101600168CC
:1015200041F070010160016841F00801016000BFF5
:1015300001688907FCD5704780B500F051F840F28A
:101540007800C2F200000178012910D19FED121A33
:10155000B4EE410AF1EE10FA1ADC0021017040F2FB
:101560008C00C2F2000001680131016080BD9FED76
:10157000091AB4EE410AF1EE10FAB8BF80BD01219C
:10158000017040F28C00C2F200000168013101607C
:1015900080BD00BF00004842000048C280B540F254
:1015A0008800C2F20000017851B1007801280FD103
:1015B00040F28C00C2F200000068FFF7EFF980BD36
:1015C00040F27C00C2F200000068FFF78FFA80BD95
:1015D00040F28000C2F200000068FFF71FFB80BDF0
:1015E00080B52C202D2100F0E7F8002100F034F91F
:1015F00080BD000010B582B041F24C00C4F2020080
:10160000016840F6004441F008010160C4F600049E
:10161000206848F2882120F00C002060206840F00B
:1016200008002060206820F0C0002060206840F0A2
:1016300080002060206820F440702060206840F422
:1016400000702060206820F440402060206840F452
:1016500080402060206A40F4AA2040F050002062C0
:10166000A0680843A06000F015F8A0690DF106011C
:1016700040F08000A0610F2000F0B4F820200F217E
:1016800000F0A8F90DF10701202000F0ABF802B03E
:1016900010BD000041F23800C4F20200016A41F4BA
:1016A00080410162016841F480410160016821F4D8
:1016B0008041016043F60000C4F20000016821F09F
:1016C00040010160016821F480610160016821F43A
:1016D00000410160016821F480410160416821F40A
:1016E000706141604FF4E0614160016821F0800168
:1016F0000160016821F001010160016821F002012F
:101700000160016841F0180101600A21016101686E
:1017100021F400510160416821F01001416001682D
:1017200041F400710160016841F004010160016849
:1017300041F480710160416841F0080141604168F5
:1017400041F480514160016841F0400101607047FF
:1017500041F24C00C4F20200016840F6FC4241F044
:10176000010101604FF09040016821F0FF0101602C
:10177000016821F4406101600C20C4F6000001689A
:1017800091430160016840F6A8021143016070476F
:10179000FFF7B2FE42F21070FFF76AFEFFF7D8FFC4
:1017A000FFF7D0FAFEF788FEFFF724FFFFF7F6FEFB
:1017B000FFF7C2FEFAE7000010B582B00C460DF14B
:1017C000070100F00FF80DF10601204600F00AF8BD
:1017D0009DF807009DF8061040EA012000B202B013
:1017E00010BD0000F0B581B040F61846C4F6000602
:1017F0000C46316843F60C0780F0800541F4000088
:10180000C4F20007306000F0DDF83D7000F0DAF857
:1018100000F0C2F800F0C8F800F0BEF800F0D2F80E
:1018200000253D7000F0CEF800F0B6F857F8040C33
:10183000C00704D03D7857F8040CC007FAD100F077
:10184000ABF82570306840F080012846316001B067
:10185000F0BD00000000000080B500EE100A0EA0F0
:1018600000EB810090ED001AB8EEC00A21EE000AEC
:1018700010EE100A00F00EFA9FED050B53EC102B42
:1018800000F00AF900F0D6F800EE100A80BD00BFA3
:10189000FCA9F1D24D62503F00000C4100008C4188
:1018A00000008C4240F28400C2F200000168F1B1F5
:1018B0000068012828D140F27C00C2F200000168D3
:1018C00048F688024EF6EF63C0F68802CEF6EE6365
:1018D00001FB032244F2444301684FEAB202C0F222
:1018E00044439A4294BF3B3101390160704740F252
:1018F0007C00C2F20000026801683C2AD4BF01F5F6
:1019000025713C390160704740F20800C2F20000C6
:10191000017841290CBF502141210170704700001E
:1019200040F28400C2F200000168D9B100680128C9
:1019300026D140F27C00C2F20000016848F689021C
:10194000C8F6880252FB0112531103EBD272C2EBAC
:101950000212A1EB820201683B2A0CBF3B39013124
:101960000160704740F27C00C2F20000026801682A
:10197000B2F5347FACBFA1F525713C3101607047F1
:1019800040F20800C2F20000017841290CBF50214A
:10199000412101707047000043F60800C4F20000C6
:1019A00001680906FCD4704743F60800C4F2000041
:1019B0000168C90708BF704701790168C907FBD1F1
:1019C0007047000043F60800C4F200000168890770
:1019D000FCD57047F0B581B040F61846C4F6000655
:1019E0000C463168054641F400003060FFF7EAFF1D
:1019F00043F60C07C4F200073D70FFF7E3FFFFF763
:101A0000CBFFFFF7D1FFFFF7C7FFFFF7DBFF3C700E
:101A1000FFF7D8FFFFF7C0FFFFF7C6FFFFF7BCFFD8
:101A20004FF49670FFF73EFD306840F08000306064
:101A300001B0F0BD21F0004201F00043A2F160527C
:101A4000B2F5801F28BFD2F17F6C0BD95FEA001C72
:101A500043EAC20242EB507018BF704728BF20F023
:101A600001007047B2F5801FBCBF184670474FEAAF
:101A7000410C1CF5001F02D2084600F089B970B570
:101A800000F0B4F800000089FFF7F6BF4FF0004007
:101A9000A0F580007047000070B5DFF848C11CEA6F
:101AA000111E1EBF1CEA13159EEA0C0F95EA0C0FBF
:101AB00000F06F8081EA03044EEAD47EAE4421EA4E
:101AC0004C1123EA4C1341F4801143F48013AEF11E
:101AD0007F7EA1FB024CA0FB0365361955EB0C057C
:101AE000A1FB034C4CF10003A0FB021C16EB0C06FF
:101AF000654153F10003094218BF46F0010613F493
:101B0000007F0BD14FEA03314FEA053041EA15510E
:101B100040EA165034036FF003020AE04FEAC32193
:101B20004FEAC52041EA555140EA5650F4026FF0A1
:101B3000020202EB2E4201EB025585EACE710AD079
:101B40005FEA440C18BF24F0004450F1000041F15A
:101B5000000120EAD47040F2FE7C624500D270BDE4
:101B6000A84214BF4FF080444FF04044002E08BFFD
:101B70000024BEF1806FA8BFA1F1C041BDE8704054
:101B800080F2828001F1C04101F000414FF000007D
:101B900070470CEA13159EEA0C0F18BF95EA0C0F5C
:101BA00006D081EA030E4FF000000EF0004170BD38
:101BB00000F01CF88900013E00F007B800F009B8F9
:101BC0004FEA430C5FEA5C5C08D081EA030100F055
:101BD0005BB84FEA410C5FEA5C5CF6D102494FF01A
:101BE000000070470000FF070000F87F0EF1020EB2
:101BF0002EF0030E5EF8046B364205D4012A43EB47
:101C0000030515F5001F12D8012841EB010C1CF546
:101C1000001F0CD80ED14FEAD17C0CEB4C0C0CF110
:101C2000020C15F5001F08BF4CEBD37C04E04FF00D
:101C3000080C01E04FEAD37C0CEB4C0526FA05F6C4
:101C400006F00706B6F1040C06D20EEB860CBDE8D2
:101C500070404CF0010C6047DFE80CF0090B020209
:101C60004FF00041A1F500214FF0000070BD194672
:101C70001046012851EB010418BFD4F5001484BFAD
:101C8000002001F0004170BD0808A0F500114FEAE6
:101C90003101704743004FEAD30C4FEA3C0C4340FC
:101CA0001FBF40070CF1605113F0FE4F70471CF04E
:101CB000006F03D10CF00041002070470CF000438E
:101CC00043EA507040EACC0010B500F00EF800BFB7
:101CD000000000924FEA0001FFF7D6BF4FF000412D
:101CE000A1F500214FF0000070470EF1020E2EF01A
:101CF000030E5EF8044B244204D44FEA4102B2F1D1
:101D00007F4F11D84FEA4003B3F17F4F0CD80ED16B
:101D10004FEAD07C0CEB4C0C0CF1020CB2F17F4F73
:101D200008BF4CEBD17C04E04FF0080C01E04FEA17
:101D3000D17C0CEB4C0324FA03F404F00704B4F157
:101D4000040C06D20EEB840CBDE810404CF0010CE4
:101D50006047DFE80CF0070802024FF00040A0F5F2
:101D6000800010BD0846420018BFD2F1807288BFC3
:101D700000F0004010BDF1EE100A4FF6FF71C0F206
:101D8000C03120EA010040F04070E1EE100A7047D7
:101D9000FF2141EAD050C005704700FE1467001DC6
:101DA0001447009D009C003F00FA14000053419826
:101DB0000019485A095A005F00FC015F01FC00AF9E
:101DC0001404005BC018815AC9005800C005005FA8
:101DD000004200F5006700EA00AF00BF004600FFC8
:101DE00000EF0000081E00080000002010000000A6
:101DF000C4010008181E0008100000208006000022
:101E0000E001000800000000010000006F17000062
:081E1000410000000000000089
:040000050800018965
:00000001FF
