:020000040800F2
:1000000070060020310200086D0200086F0200082F
:100010007102000873020008750200080000000069
:10002000000000000000000000000000770200084F
:1000300079020008000000007B020008F10C0008B3
:100040007F0200087F0200087F0200087F0200088C
:100050007F0200087F020008C50C00087F0200082C
:100060007F0200087F0200087F0200087F0200086C
:100070007F0200087F0200087F0200087F0200085C
:100080007F0200087F0200087F0200087F0200084C
:100090007F0200087F0200087F0200087F0200083C
:1000A0007F0200087F0200087F0200087F0200082C
:1000B0007F0200087F0200087F0200087F0200081C
:1000C0007F0200087F0200087F0200087F0200080C
:1000D0007F0200087F0200087F0200087F020008FC
:1000E0007F0200087F0200087F0200087F020008EC
:1000F0007F0200087F0200087F0200087F020008DC
:100100007F0200087F0200087F0200087F020008CB
:100110007F0200087F0200087F0200087F020008BB
:100120007F0200087F0200087F0200087F020008AB
:100130007F0200087F0200087F0200087F0200089B
:100140007F0200087F0200087F0200087F0200088B
:100150007F0200087F0200087F0200087F0200087B
:100160007F0200087F0200087F0200087F0200086B
:100170007F0200087F0200087F02000800000000E4
:100180007F0200087F02000800F002F800F041F84A
:100190000AA090E8000C82448344AAF10107DA45E2
:1001A00001D100F036F8AFF2090EBAE80F0013F0F3
:1001B000010F18BFFB1A43F001031847B81F0000D6
:1001C000C81F00000023002400250026103A28BF85
:1001D00078C1FBD8520728BF30C148BF0B607047B9
:1001E000662901F02C87782900F0A480732900F09B
:1001F000F083002070471FB501F00FFF00F0EEFB09
:1002000004000020002101F051FDE0601FBD10B589
:1002100010BD00F0E3FC1146FFF7EDFF00F08AFF90
:1002200000F001FD03B4FFF7F2FF03BC00F042FD54
:1002300016481749174B99423CBF50F8042B41F818
:10024000042BF8D314494FF000028B4238BF43F817
:10025000042BFAD3DFF84400016841F47001016017
:10026000BFF34F8FBFF36F8F0D480047FEE7FEE7E8
:10027000FEE7FEE7FEE7FEE7FEE7FEE7FEE7FEE756
:1002800008480949094A0A4B70470000A0210008A4
:1002900000000020000000207006002088ED00E033
:1002A0008901000870000020700600207002002004
:1002B000700200200FB41CB5084B06AA7B446946A7
:1002C0000090059800F05BFB04460020694600F0B2
:1002D00069FB20461CBC5DF814FB0000E50600002D
:1002E00070B50C460546012A05D02878800600D551
:1002F000EA69002302E0012305E05B1C934202D27D
:10030000E05C0028F9D1A869E618C01AA861286A3B
:10031000184428622846AFF3008004E0D5E90121A3
:1003200014F8010B9047B442F8D32846AFF300808D
:1003300070BD000070B504460D4621461068AFF34D
:1003400000802188090502D50F4A7A4402E00E4A4E
:100350007A440E32002104F1240305E000F00F0678
:100360000009965D5E54491C0028F7D120780023CF
:10037000000704D5702D02D009B1022311322046A6
:10038000BDE8704000F08CB8F41C00002DE9F04787
:100390004FF0000A89460446C0F820A02046E168D4
:1003A0008847002876D0252806D0D4E90121904737
:1003B000206A401C2062F1E7E1682046002588475A
:1003C000C4F81CA006460027C4F818A02A2E09D09D
:1003D000304601F063FC38B304EB8708303EC8F8C0
:1003E000186019E059F8041B204604EB870291615C
:1003F000E1688847012F064618D1E069002820DA15
:1004000025F020051DE0D8F8180000EB800006EB71
:1004100040003038C8F818002046E1688847064692
:1004200001F03CFC0028EED1012F0AD02E2E08D17D
:100430002046E16888477F1C0646022F45F02005CC
:10044000C4DBA069002803DA404245F00105A06141
:10045000E80701D025F01005B6B1A6F14100192832
:1004600002D8203645F400654A46314620462560CC
:100470004D46FFF7B5FE58B1012806D0ED1D25F019
:10048000070000F1080989E704E005F1040985E7A0
:1004900030468AE7206ABDE8F087704770477047AA
:1004A0002DE9F0470D4699469246044600F124088E
:1004B0000168880604D5E06921F01001216000E0A0
:1004C0000120A84201DD471B00E00027A1697A193D
:1004D00002EB0900081AA0612078C00602D4204669
:1004E000AFF30080002608E0D4E901211AF80600E5
:1004F0009047206A401C761C20624E45F4DB207831
:10050000C0060AD52046AFF3008006E0D4E90121F9
:1005100030209047206A401C2062381EA7F1010756
:10052000F4DC07E0D4E9012118F805009047206ABF
:10053000401C2062281EA5F10105F3DC2046AFF324
:1005400000802078000602D50220BDE8F087012057
:10055000FBE72DE9FF4F0C461E464FF0FF378BB0EF
:10056000D2E90001DDF860800A908A46C1F30A559D
:1005700005B93D46002108464FF00000BAF1000FD2
:1005800000F4400005DA00EB80004FF4400101EA7E
:1005900050004FEA9059B9F1010F00DDB9460A98B1
:1005A00050EA4A000ED044F61050A5F2FF354543FC
:1005B0002F14B8F1000F1ED07542291E1EDDC9F19F
:1005C00000021CE0B8F1010F4FF0000001D0302113
:1005D00003E0F24305E02154401CB042FBDB30460F
:1005E0000022002121540B99C1F80880C1E90020A4
:1005F0000FB000F0BCB9BD1B6D1CDEE74A4600DA47
:10060000694206A800F074FA06AB93E8070003AB52
:1006100083E8070050460A9900F060FF8DE8070064
:10062000A0F500501F3800900398002D0ADD42F21B
:100630001F014A460844002303A90390684601F0BD
:10064000C9F909E0A0F500504A461F38002303A964
:100650000390684601F0D3F98DE807000004000C10
:1006600003D04FF0FF30410800E01046B8F1000F12
:1006700003D00022009215461EE0751E05D400F03E
:10068000B1F9303262556D1EF9D5B34601220843E7
:1006900002D000227F1C04E02078302801D1002203
:1006A0007F1E002A099784D01DE0112D07DA00F083
:1006B00099F9303262556D1C50EA0102F5D10843B8
:1006C00002D00098C8B10EE00021681E05E0235C4E
:1006D000625C63542254401E491C8142F7DBAB46E6
:1006E000A81B401E0990002004F80B000B98099AE3
:1006F000C0F80880C0E9002B7AE711264FF0000807
:1007000057E72DE9F04F88460446D21D22F0070135
:1007100091B0D1E90001CDE90A0101F0A7FA024642
:100720000B98C00F01D02D2007E02068810701D56C
:100730002B2002E0202101EAC000032A099001D009
:10074000072A05DB03464146204600F091F90BE1FC
:100750002078800601D5E06900E00620B8F1650F39
:10076000814606D0B8F1660F18D0B8F1670F70D186
:1007700031E00020B9F1110F009001DB112301E0FD
:1007800009F101030AAA01A90CA8FFF7E2FEDDE9BD
:100790000C70002609F10105834647E001204B4615
:1007A00000904FF000470AAA01A90CA8FFF7D1FE5C
:1007B000DDE90DB00C995D46002610B909F1010084
:1007C0000D18B9EB050003D4C0F1FF3609F101059E
:1007D000A5EB09002BE0B9F1010F01DA4FF0010997
:1007E0000020B9F1110F0090484601DD112300E00F
:1007F00003460AAA01A90CA8FFF7ABFEDDE90C70BD
:100800004D4600268346207800070AD4AB4500DA1F
:100810005D4601A8012D04DD411911F8011C3029A4
:1008200007D04F4502DA17F1040F04DA012082469F
:100830000FE06D1EEEE7002F02DCED1B3E4403E0EF
:10084000781CA84200DD7D1CB81B00F1010A4FF0A6
:1008500000472078000703D4AA4501DB4FF0FF3A98
:100860000021B7F1004F0DF143088DF8431024D05B
:1008700002202B23002F01DA7F422D230A21021EA2
:10088000A0F1010000DC5FB197FBF1FC97FBF1F2F6
:1008900001FB1C7C17460CF1300C08F801CDEEE78B
:1008A000A8F1010003702188090501D5452100E068
:1008B0006521A0F1010800F8011C09980FA9A1EB1E
:1008C0000807FF1D00B10120411901EBEA70A16981
:1008D0003844081A401EA0612078C00602D4204681
:1008E000AFF30080099828B1D4E901219047206A2C
:1008F000401C20622078C00622D52046AFF300803D
:100900001EE0002E04DBB34502DD01A8805D00E09F
:100910003020D4E901219047206A401C2062761CD7
:10092000AAF101005FEA000A0AD100F057F8C06896
:100930000168405CD4E901219047206A401C206294
:10094000281EA5F10105DCDC07E0D4E9012118F837
:10095000010B9047206A401C2062381EA7F1010756
:10096000F3DC2046AFF30080032011B041E630BC39
:10097000BDE8C08F01694A1C02610878704700B564
:100980008FB0CDE901310021059105497944CDE9C8
:10099000031011466846FFF7F9FC0FB000BD0000D8
:1009A000E5FFFFFF0A6802F8010B0A60704710B507
:1009B000436913B1AFF3008001E0FFF791FC012020
:1009C00010BD127800F124010A7000224A70012241
:1009D000EDE711684FF0FF32E9E70000004870478B
:1009E0002000002030B5B0F10A0271F100034FEA97
:1009F000900E4EEA817EB0EB0E0061EB91014FEA62
:100A0000101E4EEA017E10EB0E0041EB11114FEA71
:100A1000102E4EEA016E10EB0E0041EB11214FEA51
:100A2000104E4EEA014E10EB0E0041EB1141401802
:100A300041F100014FEAD00040EA41704FEAD10194
:100A40004FEA810444EA907410EB800544EB010402
:100A50006D1944EB0404521BA3414FF0000348BF3F
:100A60000A3200D530BD401C41F1000130BD00000C
:100A70002DE9F0411F46044603260168072A01F4C8
:100A8000006004DB08B116A505E016A503E008B177
:100A900015A500E015A521F010002060A069C01E7A
:100AA000A0610FB1401EA0612046AFF300804FB19E
:100AB000D4E9012138469047206A401C2062C01CBE
:100AC000206206E0206AFAE7D4E9012115F8010B5B
:100AD0009047761EF8D22046AFF30080BDE8F08143
:100AE0004E414E006E616E00494E4600696E6600D2
:100AF0002DE9F047814616468AB0354878440DC83E
:100B00008DE80D0032487844801C03AC0DC884E8A1
:100B10000D0041F69B300844372190FBF1F290FB29
:100B2000F1F5A5F1800501FB12041B3C02D56442DE
:100B3000012000E00020DFF898A080460027FA445A
:100B4000AAF1BE0A0EE0E0070AD03246684607EB7B
:100B5000470101230AEB810100F051FF8DE80700F6
:100B600064107F1C002CEED1194F7F44AE3F19E07A
:100B7000E80715D007EB04100DF1180A90E80E00F5
:100B80008AE80E00C068F04201D1981908903246F8
:100B9000012306A903A800F032FF03AB83E8070096
:100BA0006D10641C002DE3D14FF0010332466946FD
:100BB000B8F1000F03A802D000F00CFF01E000F034
:100BC0001EFFC9E90001C9F808200AB0BDE8F08796
:100BD000E815000000487047000000207546FFF748
:100BE000F9FFAE4605006946534620F007008546EA
:100BF00018B020B5FFF744FBBDE820404FF00006D9
:100C00004FF000074FF000084FF0000BAC46ACE887
:100C1000C009ACE8C009ACE8C009ACE8C00921F0E3
:100C200007018D46704710B50446AFF3008020469B
:100C3000BDE81040FFF7F6BA30B44FF0013C50F871
:100C4000042B51F8043BCCFA52F4D51A20D1FCB94C
:100C500050F8042B51F8043BCCFA52F4D51A17D1B2
:100C6000B4B950F8042B51F8043BCCFA52F4D51A1D
:100C70000ED16CB950F8042B51F8043BCCFA52F465
:100C8000D51A05D1002CDAD030BC4FF000007047E7
:100C900029BAB1FA81F111F01801D1F12000844094
:100CA000F2D1CA40CB4012F0FF0213F0FF0330BC78
:100CB000D01A704701491820ABBEFEE7260002009B
:100CC0007047000080B500F071F940F26400C2F294
:100CD00000000168B1FA81F14909016040F2144055
:100CE000C4F20100016841F00101016080BD000013
:100CF00040F26400C2F20000006830B940F26800BF
:100D0000C2F2000001680131016040F26000C2F2ED
:100D100000000168013901607047000042F20001E3
:100D2000C4F20201086820F0070008600A6841F276
:100D3000000042F00202C4F202000A60016841F4BD
:100D40008071016001684905FCD5416821F0F851C6
:100D50004160416841F080514160016821F080713B
:100D6000016000BF01688901FCD4C168142221F030
:100D70000301C160C16841F00201C160C16862F352
:100D80000E21C160C168012262F30611C160C16811
:100D900021F0C061C160C16841F08071C16001682B
:100DA00041F08071016000BF01688901FCD5816854
:100DB00021F003018160816841F00301816000BF7F
:100DC000816801F00C010C29FAD1816821F0F00151
:100DD0008160816821F4E0618160816821F4605163
:100DE0008160016821F08061016000BF01684901F4
:100DF000FCD4016921F4FE410161016941F4C05153
:100E00000161016941F400310161016941F48031FE
:100E10000161016841F08061016000BF0168490122
:100E2000FCD5D0F8881021F44001C0F88810016E7C
:100E300041F400110166704741F24C00C4F2020017
:100E4000016841F00801016040F60040C4F600006E
:100E5000016821F470510160016841F42051016082
:100E6000016A41F0EE610162816841F47051816074
:100E7000C16821F47051C160C16841F4A051C160E2
:100E8000416821F0600141607047000080B541F287
:100E90008800C4F2020050F8301C41F4003140F8E0
:100EA000301C016821F00C010160016841F004016F
:100EB0000160FFF7C1FF44F20040C4F2000000F0FF
:100EC00003F880BD70470000016844F2004221F041
:100ED000010101600168C4F2000221F010210160EB
:100EE0000168904221F400410160416821F44051C1
:100EF000416042F28D01C160016841F00C01016066
:100F000022D044F60041C4F2000188422CD101688D
:100F100041F020010160016821F040010160016899
:100F200021F010010160016821F080010160016879
:100F300021F480710160016821F0400101600168C5
:100F400021F0010101600FE044F22041C4F20001F0
:100F50000A6842F040020A6043F60801C4F2010147
:100F60000A6842F0C0020A60016841F001010160B4
:100F7000C1698902FCD500BFC1694902FCD570472F
:100F800062B14FF0000C00BFC3691B06FCD511F81D
:100F90000C300CF1010C94450385F5D1C16949066B
:100FA000FCD5C16921F04001C16170474EF280203B
:100FB000CEF20000402101607047000080B528207B
:100FC000292100F04DF9002100F09AF980BD0000C0
:100FD00080B52A202B2100F043F9002100F090F980
:100FE00080BD000080B52C202D2100F039F90021B2
:100FF00000F086F980BD00002DE9F0478AB000209E
:101000008DF8070042F20010C0F6000044F2004ADA
:10101000451E08270DF107080FF2380902AEC4F289
:10102000000A00BF15F8014F4146204600F02EF996
:101030009DF80730304649462246FFF73BF9024605
:1010400050463146FFF79CFF013FEBD10AB0BDE8A7
:10105000F08700BF616464726573733A203078254D
:101060002E32582C2076616C75653A203078252E0A
:1010700032580D0A0000000041F23800C4F20200AC
:10108000016A41F480410162016841F480410160DC
:10109000016821F48041016043F60000C4F20000C1
:1010A000016821F040010160016821F48061016064
:1010B000016821F400410160016821F48041016070
:1010C000416821F4706141604FF4E0614160016862
:1010D00021F080010160016821F0010101600168D7
:1010E00021F002010160016841F0180101600A214C
:1010F0000161016821F400510160416821F0100193
:101100004160016841F400710160016841F004012F
:101110000160016841F480710160416841F008019B
:101120004160416841F480514160016841F04001F3
:1011300001607047FFF7F2FDFFF7A8FE08A000F07E
:1011400035F80CA000F032F800F000F9FFF754FF7A
:1011500011A000F02BF800BF00F03EF8FCE700BF44
:101160007E7E7E7E2048656C6C6F21207E7E7E7E3A
:10117000000000003D3D3D205072652D4779726FA3
:1011800020496E697469616C697A6174696F6E2057
:101190003D3D3D3D000000007E7E7E7E20476F6F1E
:1011A0006462796521207E7E7E7E000010B588B065
:1011B0006C46024606A12046FFF77CF8024644F240
:1011C0000040C4F200002146FFF7DAFE08B010BD6F
:1011D00025730D0A0000000070B52DED068B8CB054
:1011E000FFF7ECFEB0EE408AFFF7F2FEB0EE409A59
:1011F000FFF7F8FE18EE100AB0EE40AA00F09CFED1
:10120000044619EE100A0D4600F096FE41EC180B4C
:101210001AEE100A00F090FE41EC100B04AE0BA188
:10122000304622462B468DED008B8DED020BFFF7ED
:1012300041F8024644F20040C4F200003146FFF794
:101240009FFE0CB0BDEC068B70BD00BF783D2566DF
:101250002C09793D25662C097A3D25660D0A00008A
:1012600010B582B00C460DF1070100F00FF80DF13A
:101270000601204600F00AF89DF807009DF80610C8
:1012800040EA012000B202B010BD0000F0B581B00C
:1012900040F61846C4F600060C46316843F60C07C3
:1012A00080F0800541F40000C4F20007306000F0D7
:1012B000DDF83D7000F0DAF800F0C2F800F0C8F890
:1012C00000F0BEF800F0D2F800253D7000F0CEF836
:1012D00000F0B6F857F8040CC00704D03D7857F872
:1012E000040CC007FAD100F0ABF82570306840F06C
:1012F00080012846316001B0F0BD00000000000010
:1013000080B500EE100A0EA000EB810090ED001AEF
:10131000B8EEC00A21EE000A10EE100A00F00CFE32
:101320009FED050B53EC102B00F008FD00F0D4FCF2
:1013300000EE100A80BD00BFFCA9F1D24D62503F03
:1013400000000C4100008C4100008C4210B582B0BE
:1013500036A0FFF72BFF41F24C00C4F202000168F7
:1013600040F6004441F008010160C4F60004206822
:1013700048F2882120F00C002060206840F008002E
:101380002060206820F0C0002060206840F08000CD
:101390002060206820F440702060206840F40070D5
:1013A0002060206820F440402060206840F48040A5
:1013B0002060206A40F4AA2040F050002062A0681B
:1013C0000843A060FFF758FEA0690DF1060140F048
:1013D0008000A0610F20FFF759FF42F2591142F23D
:1013E0000812C0F60001C0F60002D42808BF11465A
:1013F0000846FFF7DBFE20200F2100F03FF80DF13B
:1014000007012020FFF742FF9DF8071042F2271046
:1014100042F23E12C0F60000C0F600020F2908BFDB
:101420001046FFF7C3FE02B010BD00BF496E6974DD
:1014300069616C697A696E67204779726F21000073
:1014400043F60800C4F2000001680906FCD47047A6
:1014500043F60800C4F200000168C90708BF7047DE
:1014600001790168C907FBD17047000043F6080005
:10147000C4F2000001688907FCD57047F0B581B05F
:1014800040F61846C4F600060C463168054641F49D
:1014900000003060FFF7EAFF43F60C07C4F20007D4
:1014A0003D70FFF7E3FFFFF7CBFFFFF7D1FFFFF73B
:1014B000C7FFFFF7DBFF3C70FFF7D8FFFFF7C0FF68
:1014C000FFF7C6FFFFF7BCFF4FF49670FFF7FAFC7B
:1014D000306840F08000306001B0F0BD5FEA400C41
:1014E00008BF91F0000F4FEA8C234FEAC12243EA74
:1014F00051514FEA1C5018BF00F5F0404FEA300040
:1015000018BF41F000415FEA6C5C00F02980BCF13B
:10151000FF3F08BF40F080407047130C06BF120425
:101520004FF0100C4FF0000C130E04BF12020CF120
:10153000080C130F04BF12010CF1040C930F04BF2D
:1015400092000CF1020CD30F04BF52000CF1010CFD
:1015500011464FF00002A0F11F00A0EB0C007047F5
:1015600011F0004F08BF704731F000413FF4D5AF94
:101570000B0C06BF09044FF0100C4FF0000C0B0EC3
:1015800004BF09020CF1080C0B0F04BF09010CF198
:10159000040C8B0F04BF89000CF1020CCB0F04BFAD
:1015A00049000CF1010CCCF1200322FA03F341EACB
:1015B000030102FA0CF2A0EB0C0000F101007047ED
:1015C00023F07F4720F07F4C80EA030000F00040CA
:1015D000ACEB070303F57C5303F1FF032DE98049CE
:1015E00009B44FEA144324EA03484FEA154B25EAAD
:1015F0000B4E0FF2042606EB13273E7803FB06671B
:10160000C7F5000707FB06F64FEAD64606F10206C5
:101610004FEA543707FB066CCCF1005C4FEA1C47DD
:101620002CEA074C0CFB06F507FB06F404EB154609
:101630004FEA961649085FEA320234BF00204FF0A5
:1016400000404FEAD13706FB07FC4FEA1C4C0CFB6D
:101650000BF7D21B03FB0CF761EB07010CFB0EF73A
:10166000B0EB074072EB17420CFB08F734BFA2EB5C
:101670000742B2EB074261EB17414FEA0C444FEAD5
:10168000910706FB07FC4FEA1C4C0CFB0BF7B0EB79
:10169000C74072EB573203FB0CF734BFA2EBC742D3
:1016A000B2EBC74261EB57310CFB0EF7B0EBC70052
:1016B00072EB57720CFB08F734BFA2EBC702B2EB18
:1016C000C70261EB57714FEA816141EA92114FEA1B
:1016D000826242EA90124FEA806004EBCC04039FDE
:1016E0004FEAD13706FB07FC4FEA1C4C0CFB0BF70B
:1016F000D21B03FB0CF761EB07010CFB0EF7B0EB01
:10170000074072EB17420CFB08F734BFA2EB07420D
:10171000B2EB074261EB17414FEA8C5504EB9C2476
:101720004FEA910706FB07FC4FEA1C4C0CFB0BF73A
:10173000B0EBC74072EB573203FB0CF734BFA2EBA0
:10174000C742B2EBC74261EB57310CFB0EF7B0EB6F
:10175000C70072EB57720CFB08F734BFA2EBC7024D
:10176000B2EBC70261EB57714FEA816141EA921116
:101770004FEA826242EA90124FEA806015EB4C25F4
:1017800044F100044FEAD13706FB07FC4FEA1C4C3A
:101790000CFB0BF7D21B03FB0CF761EB07010CFBF7
:1017A0000EF7B0EB074072EB17420CFB08F734BFA3
:1017B000A2EB0742B2EB074261EB17414FEA8131DE
:1017C00041EA92414FEA823242EA90424FEA803047
:1017D0004FEA0C7615EB1C1544F1000448EA03436C
:1017E0004EEA0B484FF0000EB2EB080C71EB03070A
:1017F00024BF624639464EEB0E0E4FF0000B001828
:10180000524149414BEB0B0BB2EB080C71EB030758
:101810007BF1000B24BF624639464EEB0E0E4FF0B3
:10182000000B0018524149414BEB0B0BB2EB080C7B
:1018300071EB03077BF1000B24BF624639464EEB88
:101840000E0E51EA020718BF46F0010616EB0E769F
:1018500055F1000254F1000103D5BDE88901BDE84E
:101860000088BDE88901BDE80048B619524141EB46
:101870000101A3F10103704780807F7E7D7C7B7A2C
:101880007978777676757473727171706F6E6E6D2C
:101890006C6C6B6A6A6968686766666564646363D2
:1018A00062616160605F5F5E5E5D5D5C5C5B5B5A58
:1018B0005A595958585757565655555554545353C5
:1018C00052525251515050504F4F4F4E4E4D4D4D20
:1018D0004C4C4C4B4B4B4A4A4A494949484848476B
:1018E00047474746464645454544444444434343A9
:1018F00043424242424141419C46002B30D4770052
:101900002BD04FEA37071CB503B44FF010004FF04F
:101910001001BAF1000F06D0BCF1000FDCBF40F09F
:10192000080040F008014FF000000FBCBDE8104077
:101930000BF1010BBBF1010F08BF5FEA170722BFD4
:1019400012F1010211F101014FF0004143F10003D6
:1019500000F0004043EA00007047F9D35708D0E791
:1019600046EA06464FEA164613F1400F1FDD13F113
:10197000200FDFBF16430A46002120335B42BED052
:10198000C3F1200746EA06464FEA164602FA07F771
:1019900046EA070622FA03F2C3F1200701FA07F725
:1019A00042EA070221FA03F14FF00003A7E746EAF3
:1019B000020646EA06464FEA164646EA0106BCBF5C
:1019C00046EA0646360C4FF000034FF000024FF097
:1019D000000194E72DE9804C70B49A46934691E853
:1019E000380007C831EA400C48BF34EA430C03D53D
:1019F000FFF7E6FDFFF780FFF0BCBDE8008C2DE9A6
:101A0000804C70B49A46934691E8380007C810F0AD
:101A1000804F08BF13F0804F03D100F005F8FFF7A7
:101A20006BFFF0BCBDE8008C20F07F4723F07F4CBB
:101A300080EA030000F0004007EB0C03A3F57C53A1
:101A4000A3F1FE0392F0000F00F0B38095F0000FB9
:101A500000F077802DE901494FEA114021EA004862
:101A60004FEA144624EA064700FB06FC08FB06F68C
:101A700007FB08F818EB06484CEB164C00FB07F781
:101A800018EB07484CEB17404FEA124B22EA0B4E7B
:101A90004FEA154625EA06470BFB06FC0EFB06F649
:101AA00007FB0EFE1EEB064E4CEB164C0BFB07F72E
:101AB0001EEB074E4CEB174B18EB0B0840F10000E8
:101AC00018EB0E0B58EB000840F100008F1A4FF096
:101AD00000014FF000063CBFC943661B14BFB5EBC5
:101AE000040C00213CBFC943F61B4FEA174427EA08
:101AF00004454FEA1C472CEA074C04FB076205FB30
:101B000007F70CFB05F616EB074642EB174204FB02
:101B10000CFC16EB0C4642EB1C421BEB060658EB8A
:101B2000020241414EEA8E0E46EA9E0601D5BDE80C
:101B30000189B619524141EB0101A3F10103BDE84E
:101B400001894FEA144524EA05464FEA114721EA84
:101B5000074C05FB07F406FB07F70CFB06F111EB3E
:101B6000074144EB174405FB0CFC11EB0C4144EB23
:101B70001C444FEA124722EA074C05FB07F206FB1A
:101B800007F70CFB06F616EB074642EB174205FB80
:101B90000CFC16EB0C4642EB1C456A1854F1000194
:101BA00048BF7047B619524141EB0101A3F101034F
:101BB000704795F0000F37D04FEA114221EA0246F4
:101BC0004FEA144724EA074C02FB07F106FB07F72C
:101BD0000CFB06F414EB074441EB174102FB0CFC31
:101BE00014EB0C4441EB1C414FEA154725EA074C26
:101BF00002FB07F506FB07F70CFB06F616EB07469C
:101C000045EB174502FB0CFC16EB0C4645EB1C4262
:101C1000121951F1000148BF7047B619524141EB0A
:101C20000101A3F1010370474FEA144524EA054678
:101C30004FEA114721EA074C05FB07F106FB07F7BE
:101C40000CFB06F212EB074241EB174105FB0CFCC3
:101C500012EB0C4251EB1C414FF0000648BF70479D
:101C6000921841EB0101A3F10103704703B40198FD
:101C70004100009850EAC12018BF04204A0D18BF47
:101C800040F0010040F2FF72B2EB515F08BF40F03C
:101C90000200012808BF052002B0704730380A282A
:101CA00001D20120704700207047000010B50029C4
:101CB0000AD00878002807D005487844FEF7BCFF12
:101CC000002801D0002010BD0248784410BD00005B
:101CD000CA040000C204000021F0004201F00043E9
:101CE000A2F16052B2F5801F28BFD2F17F6C0BD9F0
:101CF0005FEA001C43EAC20242EB507018BF704713
:101D000028BF20F001007047B2F5801FBCBF184605
:101D100070474FEA410C1CF5001F02D2084600F044
:101D200089B970B500F0B4F800000089FFF7F6BF7C
:101D30004FF00040A0F580007047000070B5DFF85C
:101D400048C11CEA111E1EBF1CEA13159EEA0C0FA7
:101D500095EA0C0F00F06F8081EA03044EEAD47E0E
:101D6000AE4421EA4C1123EA4C1341F4801143F4B0
:101D70008013AEF17F7EA1FB024CA0FB03653619F8
:101D800055EB0C05A1FB034C4CF10003A0FB021C1E
:101D900016EB0C06654153F10003094218BF46F0EB
:101DA000010613F4007F0BD14FEA03314FEA0530EF
:101DB00041EA155140EA165034036FF003020AE07D
:101DC0004FEAC3214FEAC52041EA555140EA565037
:101DD000F4026FF0020202EB2E4201EB025585EA9B
:101DE000CE710AD05FEA440C18BF24F0004450F1D1
:101DF000000041F1000120EAD47040F2FE7C62450F
:101E000000D270BDA84214BF4FF080444FF0404450
:101E1000002E08BF0024BEF1806FA8BFA1F1C04111
:101E2000BDE8704080F2828001F1C04101F00041C4
:101E30004FF0000070470CEA13159EEA0C0F18BF14
:101E400095EA0C0F06D081EA030E4FF000000EF069
:101E5000004170BD00F01CF88900013E00F007B899
:101E600000F009B84FEA430C5FEA5C5C08D081EAF5
:101E7000030100F05BB84FEA410C5FEA5C5CF6D10D
:101E800002494FF0000070470000FF070000F87F94
:101E90000EF1020E2EF0030E5EF8046B364205D4EE
:101EA000012A43EB030515F5001F12D8012841EB69
:101EB000010C1CF5001F0CD80ED14FEAD17C0CEBA5
:101EC0004C0C0CF1020C15F5001F08BF4CEBD37C39
:101ED00004E04FF0080C01E04FEAD37C0CEB4C051A
:101EE00026FA05F606F00706B6F1040C06D20EEB4C
:101EF000860CBDE870404CF0010C6047DFE80CF048
:101F0000090B02024FF00041A1F500214FF0000043
:101F100070BD19461046012851EB010418BFD4F5D5
:101F2000001484BF002001F0004170BD0808A0F536
:101F300000114FEA3101704743004FEAD30C4FEADA
:101F40003C0C43401FBF40070CF1605113F0FE4FA3
:101F500070471CF0006F03D10CF000410020704767
:101F60000CF0004343EA507040EACC0010B500F09A
:101F70000EF800BF000000924FEA0001FFF7D6BF45
:101F80004FF00041A1F500214FF0000070470EF125
:101F9000020E2EF0030E5EF8044B244204D44FEAE6
:101FA0004102B2F17F4F11D84FEA4003B3F17F4FA6
:101FB0000CD80ED14FEAD07C0CEB4C0C0CF1020C7F
:101FC000B2F17F4F08BF4CEBD17C04E04FF0080C1E
:101FD00001E04FEAD17C0CEB4C0324FA03F404F04B
:101FE0000704B4F1040C06D20EEB840CBDE81040DB
:101FF0004CF0010C6047DFE80CF0070802024FF0DC
:102000000040A0F5800010BD0846420018BFD2F184
:10201000807288BF00F0004010BDF1EE100A4FF64C
:10202000FF71C0F2C03120EA010040F04070E1EEE3
:10203000100A7047FF2141EAD050C0057047FEF7F3
:1020400060BB30313233343536373839414243445E
:102050004546403058003031323334353637383920
:1020600061626364656640307800000002400000F1
:10207000000000A00000000005400000000000C8B3
:10208000000000000C4000000000409C0000000028
:10209000194000000020BCBE0000000034400000D9
:1020A000BFC91B8E00000004B5400000504BCFD0CC
:1020B0006607E2CF010000006C4100003E8251AA99
:1020C000DFEEA73401000000D9420000DCB5A0E239
:1020D0003A301F97FFFFFFFFB4450000FD25A0C861
:1020E000E9A3C14FFFFFFFFFFF3F0000000000809A
:1020F00000000000FF3F0000000000800000000022
:10210000200F200F200F200F4779726F2057484F64
:102110005F414D5F492054657374205355434345D7
:10212000535346554C2100577269746520746F20D3
:102130004779726F204661696C7572652100496E3E
:10214000697469616C697A696E67204779726F207A
:102150005375636365737321004779726F20574825
:102160004F5F414D5F492054657374204661696C2F
:1021700065640000A0210008000000207006000037
:10218000C40100081C00000043000000F8FFFFFF2E
:102190000C0000000E0000000F0000002E000000E8
:040000050800018965
:00000001FF
