:020000040800F2
:10000000700600200D020008490200084B0200089B
:100010004D0200084F0200085102000800000000D5
:100020000000000000000000000000005302000873
:1000300055020008000000005702000835100008B3
:100040005B0200085B0200085B0200085B0200081C
:100050005B0200085B0200080D0300085B02000859
:100060005B0200085B0200085B0200085B020008FC
:100070005B0200085B0200085B0200085B020008EC
:100080005B0200085B0200085B0200085B020008DC
:100090005B0200085B0200085B0200085B020008CC
:1000A0005B0200085B0200085B0200085B020008BC
:1000B0005B0200085B0200085B0200085B020008AC
:1000C0005B0200085B0200085B0200085B0200089C
:1000D0005B0200085B0200085B0200085B0200088C
:1000E0005B0200085B0200085B0200085B0200087C
:1000F0005B0200085B0200085B0200085B0200086C
:100100005B0200085B0200085B0200085B0200085B
:100110005B0200085B0200085B0200085B0200084B
:100120005B0200085B0200085B0200085B0200083B
:100130005B0200085B0200085B0200085B0200082B
:100140005B0200085B0200085B0200085B0200081B
:100150005B0200085B0200085B0200085B0200080B
:100160005B0200085B0200085B0200085B020008FB
:100170005B0200085B0200085B0200080000000050
:100180005B0200085B02000800F002F800F02EF8A5
:100190000AA090E8000C82448344AAF10107DA45E2
:1001A00001D100F023F8AFF2090EBAE80F0013F006
:1001B000010F18BFFB1A43F0010318475410000049
:1001C000641000000023002400250026103A28BFF8
:1001D00078C1FBD8520728BF30C148BF0B607047B9
:1001E0001FB500F0E3FF1FBD10B510BD00F053F8C0
:1001F0001146FFF7F5FF00F0B3FF00F071F803B40C
:10020000FFF7F2FF03BC00F079F800001648174929
:10021000174B99423CBF50F8042B41F8042BF8D3FC
:1002200014494FF000028B4238BF43F8042BFAD335
:10023000DFF84400016841F470010160BFF34F8FA3
:10024000BFF36F8F0D480047FEE7FEE7FEE7FEE7CE
:10025000FEE7FEE7FEE7FEE7FEE7FEE7084809499E
:10026000094A0A4B704700002012000800000020D5
:10027000000000207006002088ED00E089010008E1
:100280007000002070060020700200207002002024
:10029000704770477047754600F02CF8AE46050071
:1002A0006946534620F00700854618B020B5FFF791
:1002B000D5FFBDE820404FF000064FF000074FF09B
:1002C00000084FF0000BAC46ACE8C009ACE8C00930
:1002D000ACE8C009ACE8C00921F007018D467047C1
:1002E00010B50446AFF300802046BDE81040FFF78C
:1002F00086BF000000487047000000200149182018
:10030000ABBEFEE7260002007047000080B500F09B
:10031000E7FE40F26800C2F200000168B1FA81F124
:100320004909016040F21440C4F20100016841F043
:100330000101016080BD000080B541F26000C4F29F
:100340000200016841F0010101600820C4F20100CF
:10035000016821F00701016001680160D0F8001414
:1003600021F00101C0F8001440F20C41C4F2010177
:100370000A6842F001020A60D0F8F81341F0010166
:10038000C0F8F8130620272100F0C0FE062000F078
:10039000AFFE80BD70B58AB041F0C00140F6144692
:1003A0008DF80710C4F600063168054621F080007C
:1003B00030600A20144600F0B9FE0DF1070002A9D2
:1003C000012200F013FE2846214600F0EFFD0A202E
:1003D00000F0ACFE306840F0800030600AB070BDC4
:1003E00042F20840C4F2000001684907FCD46FF0F3
:1003F00003010022431804313C291A61FAD1016833
:1004000041F004010160704741F29000C4F2020023
:1004100050F8381CC90005D450F8381C41F0805100
:1004200040F8381C47F20001C4F2000150F8382CA3
:100430000A68D20507D40A6842F480720A6000BFD5
:100440000A68D205FCD5016821F005010160016848
:1004500041F480310160016821F48031016001685C
:10046000890706D4016841F001010160016889072C
:10047000F8D5016821F440710160016841F4807190
:10048000016050F8381C21F0805140F8381C50F8B9
:10049000381C41F4007140F8381C704742F20040AB
:1004A000C4F20000016821F060010160016841F0C0
:1004B00040010160016821F01C010160016841F008
:1004C00004010160016841F008010160416841F4E4
:1004D000E0514160416841F070014160016821F0E4
:1004E00080010160016821F002010160016841F0B2
:1004F000010101607047000010B590F800C0ACF138
:100500002004DF2C00F236810FF208004FF0000EBD
:10051000DFE814F0E800300130013001300105015E
:100520003001300108010B010E01150130011801E5
:1005300030011B01E000E000E000E000E000E0002E
:10054000E000E000E000E000300130013001300167
:100550003001300130013001300130013001300113
:100560003001300130013001300130013001300103
:1005700030013001300130013001300130013001F3
:1005800030013001300130013001300130013001E3
:100590003001300130013001300130011E013001E5
:1005A00030013001300130013001300130012101D2
:1005B00024013001300130013001300130013001BF
:1005C00030013001300130013001300130013001A3
:1005D0003001300130013001300130013001300193
:1005E0003001300130013001300130013001300183
:1005F0003001300130013001300130013001300173
:100600003001300130013001300130013001300162
:100610003001300130013001300130013001300152
:100620003001300130013001300130013001300142
:1006300030013001270130013001300130012A0141
:100640003001300130013001300130013001300122
:100650003001300130013001300130013001300112
:100660003001300130013001300130013001300102
:1006700030013001300130013001300130013001F2
:1006800030013001300130013001300130013001E2
:1006900030013001300130013001300130013001D2
:1006A00030013001300130013001300130013001C2
:1006B00030013001300130013001300130013001B2
:1006C00030013001300130013001300130013001A2
:1006D00030012D0141F2FA10C0F6000000EB4C0091
:1006E00030F860EC002918BF4EF0020E002A18BF47
:1006F0004EF0200E1FFA8EFE0C214FF0FF326FF0ED
:10070000030C00BFCCB22EFA04F49818013204F0A6
:100710000F04032A5CFA81F14470F3D110BD4FF449
:10072000334EDFE74FF0280EDCE74FF0110ED9E72C
:100730004AF21400CFF6FF7000F1C90ED2E74AF278
:10074000140ECFE74FF4204ECCE74FF0C00EC9E7B0
:100750004FF4734EC6E74BF2102EC3E742F2102E51
:10076000C0E74FF46C4EBDE746F2840EBAE74FF691
:10077000DD7EB7E7ACF14100192808D841F2C61078
:10078000C0F6000000EB4C0030F882EC01E04FF0C6
:10079000000EACF161001928A4D841F2C610C0F6D1
:1007A000000000EB4C0030F8C2EC9BE7B0B582B023
:1007B00041F6F111C0F2765150FB01F1CA1102EB82
:1007C000D17141F2707201FB120346F2676EC6F2FC
:1007D000666E53FB0EF248F21F559008C5F2EB15FA
:1007E00000EBD27053FB05F2541100EB800004EBD8
:1007F000D2724FF0640CA3EB400002FB1C3230308D
:100800008DF8070052FB0EF0820802EBD07044F620
:10081000D352C1F2620253FB02F2941104EBD27282
:100820004FF47A7402FB143330308DF8060053FB1A
:1008300005F0430903EBD07030308DF8050002F16C
:1008400030008DF8040051FB0EF0820802EBD070EE
:1008500051FB05F2531100EB800003EBD272A1EBC8
:10086000400002FB1C1130308DF8030051FB0EF0EC
:10087000810801EBD07030308DF802000DF10200DC
:1008800000210022002300F0DBF80DF1030000211D
:100890000122012300F0D4F801A800210022022344
:1008A00000F0CEF80DF1050001210022032300F035
:1008B000C7F80DF1060000210022042300F0C0F863
:1008C0000DF1070000210022052300F0B9F802B065
:1008D000B0BD000080B500F007F8FFF795FDFFF709
:1008E000DDFDFFF77DFD80BD41F24C00C4F202004A
:1008F000016840F6FF7241F0010101600168C3F632
:10090000C07241F002010160016841F00401016020
:10091000016841F0080101604FF09040016811400A
:10092000016001684AF20002C8F22A021143016024
:100930002020C4F6000001684FF2000221F07F4140
:1009400001600168C0F6FF7241F03B4101604168FF
:1009500011404160416840F6BB32CBF200021143C6
:100960004160D0F8E0134FF2F002C0F2F302114000
:10097000C0F8E013D0F8E01340F60A22CAF60822C5
:100980001143C0F8E013D0F800144FF60F7221F0B5
:10099000FF11C0F80014D0F8001441F0BB11C0F8EA
:1009A000001440F22440C4F60000016811400160C8
:1009B0000168B022CBF6BB3211430160D0F8DC13E2
:1009C0004BF200026FF39111C0F8DC13D0F8DC1386
:1009D000CBF6BB3241F4203141F42A51C0F8DC138C
:1009E000D0F8FC136FF31F31C0F8FC13D0F8FC13E0
:1009F0001143C0F8FC13D0F8001421F00F01C0F827
:100A00000014D0F8001441F00B01C0F8001440F6B7
:100A10000040C4F60000016889B20160016841F03D
:100A20002A4141F42A010160016A0162016A0162FE
:100A3000416A00214162416A41F0BB314162704725
:100A4000B0B582B01C4642F2144501ABC4F20005B9
:100A5000FFF752FD55F80C0C4007FBD4052C00F2B3
:100A60005D82DFE814F006006300C40021018A0102
:100A7000FB0128684FF6E771CFF63F710840286008
:100A8000A8680840A860286908402861A86908404B
:100A9000A8619DF804002C6800F0010100F002023A
:100AA00000F0040300F00800204340EA825040EACE
:100AB000011040EA035028609DF80500AC6800F082
:100AC000010100F0020200F0040300F008002043DE
:100AD00040EA825040EA011040EA0350A8609DF8C5
:100AE00006002C6900F0010100F0020200F004038E
:100AF00000F00800204340EA825040EA011040EA3A
:100B0000035028619DF80700AC6900F0010100F076
:100B1000020200F0040300F00800204340EA825083
:100B200040EA011040EA0350A861F7E128684CF65A
:100B30009F71CFF6FF7108402860A8680840A86040
:100B4000286908402861A8690840A8619DF8040048
:100B50002C6800F0020200F0010144EA023200F0C9
:100B6000040342EA811100F0080041EA832141EACE
:100B7000800028609DF80500AC6800F0020200F0DB
:100B8000010144EA023200F0040342EA811100F05C
:100B9000080041EA832141EA8000A8609DF8060030
:100BA0002C6900F0020200F0010144EA023200F078
:100BB000040342EA811100F0080041EA832141EA7E
:100BC000800028619DF80700AC6900F0020200F087
:100BD000010144EA023200F0040342EA811100F00C
:100BE000080041EA832141EA8000A86196E1286873
:100BF00043F6FF71CCF6FF7108402860A8680840F2
:100C0000A860286908402861A8690840A8619DF883
:100C100004002C68C10300F0020289B244EA0272A7
:100C200000F00403114300F0080041EA836141EA47
:100C3000C02028609DF80500AC68C10300F00202E6
:100C400089B244EA027200F00403114300F0080084
:100C500041EA836141EAC020A8609DF806002C6942
:100C6000C10300F0020289B244EA027200F00403F8
:100C7000114300F0080041EA836141EAC020286185
:100C80009DF80700AC69C10300F0020289B244EA92
:100C9000027200F00403114300F0080041EA83618E
:100CA00041EAC020A86139E1286820F0404028606E
:100CB000686820F003006860A86820F04040A860E1
:100CC000E86820F00300E860286920F040402861CF
:100CD000686920F003006861A86920F04040A861BD
:100CE000E86920F00300E8619DF80400296800F03D
:100CF000080241EAC07141EAC261296000F00201C4
:100D0000C0F380006A680844104368609DF80500DD
:100D1000A96800F0080241EAC07141EAC261A96015
:100D200000F00201C0F38000EA6808441043E86064
:100D30009DF80600296900F0080241EAC07141EA05
:100D4000C261296100F00201C0F380006A690844B1
:100D5000104368619DF80700A96900F0080241EAA4
:100D6000C07141EAC261A96100F00201C0F38000D4
:100D7000EA6908441043E861D0E0286820F0407038
:100D80002860686820F00C006860A86820F0407057
:100D9000A860E86820F00C00E860286920F0407046
:100DA0002861686920F00C006861A86920F0407033
:100DB000A861E86920F00C00E8619DF804102A6839
:100DC00001F0040301F0020042EA835242EA0060AB
:100DD0002860042000EA51026B6861F3C30242EA12
:100DE000030169609DF80510AB6801F0040401F08F
:100DF000020243EA845343EA0262AA6000EA510213
:100E0000EB6861F3C30242EA0301E9609DF8061052
:100E10002B6901F0040401F0020243EA845343EA1F
:100E200002622A6100EA51026B6961F3C30242EA7D
:100E3000030169619DF80710AB6901F0040401F03A
:100E4000020243EA845343EA0262AA6100EA5100C3
:100E5000EA6961F3C3001043E8615FE028684FF678
:100E6000FF41CFF6FD3108402860A8680840A8601F
:100E7000286908402861A8690840A8619DF8040015
:100E80002C6800F0020200F0010144EAC21200F0F6
:100E9000040342EA414100F0080041EAC31141EA7B
:100EA000C05028609DF80500AC6800F0020200F018
:100EB000010144EAC21200F0040342EA414100F099
:100EC000080041EAC31141EAC050A8609DF806003D
:100ED0002C6900F0020200F0010144EAC21200F0A5
:100EE000040342EA414100F0080041EAC31141EA2B
:100EF000C05028619DF80700AC6900F0020200F0C4
:100F0000010144EAC21200F0040342EA414100F048
:100F1000080041EAC31141EAC050A86100F008F896
:100F200055F80C0C40F0040045F80C0C02B0B0BDB4
:100F300042F22440C4F2000050F81C1C4907FBD4C4
:100F400001684FF6FF62CFF6FF52114001608168E1
:100F50001140816040F26001C2F200010978CA07C5
:100F600010D18A0714D44A0718D4090703D5016899
:100F700041F00071016050F81C1C41F0040140F880
:100F80001C1C7047826842F4807282608A07EAD52E
:100F9000026842F4807202604A07E6D5826842F035
:100FA000007282600907E6D5E1E7000080B543F6EC
:100FB00008020129C4F2000214DB4FF0000E4FF0CA
:100FC000FF0C00BF13689B07FCD582F804C000BF6C
:100FD0001368DB07FCD0137900F80E300EF1010E18
:100FE0008E45EFD110680006FCD480BD80B543F675
:100FF000080E012AC4F2000E16DB4FF0000C00BFF1
:10100000DEF800309B07FBD510F80C308EF804306A
:10101000DEF80030DB07FBD09EF804300CF1010C49
:1010200094454B70ECD100BFDEF800000006FBD405
:1010300080BD000040F26800C2F20000006830B9D4
:1010400040F26C00C2F2000001680131016040F220
:101050006400C2F2000001680139016070470000BD
:10106000B0B54EF21004CEF2000400250138256020
:1010700060604FF0FF30012100F048F84FF0FF3082
:1010800000F036F8A560206820F004002060206899
:1010900040F002002060206840F001002060B0BDF8
:1010A00041F20000C4F20200016841F00101016058
:1010B000816821F00301816001688907FCD501681E
:1010C00021F0F0010160016841F0700101600168E8
:1010D00041F00801016000BF01688907FCD5704735
:1010E0004EF28020CEF200004021016070470000E7
:1010F000002848BF704700F01F00012101FA00F0EE
:101100004EF20011CEF2000108607047002806D4AC
:101110004EF200420901CEF20002815470470801EC
:101120004EF62351CEF200010870704740F2640180
:10113000C2F20001086000BF08680028FCD17047B7
:1011400041F24C00C4F20200016841F0010101606B
:101150004FF09040016821F00301016070470000EA
:1011600082B0FFF79DFFFFF7B5FBFFF7E9FFFFF741
:10117000E3F842F21070FFF773FF0DF10100272131
:101180000122FFF707F99DF80100000705D50DF1D1
:10119000020028210622FFF7FDF840F26C04C2F29B
:1011A000000400BF2068FFF701FBFBE7F1EE100A27
:1011B0004FF6FF71C0F2C03120EA010040F04070EC
:1011C000E1EE100A704700FE1467001D1447009DF1
:1011D000009C003F00FA1400005341980019485A3F
:1011E000095A005F00FC015F01FC00AF1404005BC2
:1011F000C018815AC9005800C005005F004200F5C0
:10120000006700EA00AF00BF004600FF00EF0000EB
:10121000201200080000002070060000C401000831
:040000050800018965
:00000001FF
